{
  "contractName": "Item",
  "abi": [
    {
      "inputs": [
        {
          "internalType": "contract ItemManager",
          "name": "_parentContract",
          "type": "address"
        },
        {
          "internalType": "uint256",
          "name": "_priceInWei",
          "type": "uint256"
        },
        {
          "internalType": "uint256",
          "name": "_index",
          "type": "uint256"
        }
      ],
      "stateMutability": "nonpayable",
      "type": "constructor"
    },
    {
      "stateMutability": "payable",
      "type": "fallback"
    },
    {
      "inputs": [],
      "name": "index",
      "outputs": [
        {
          "internalType": "uint256",
          "name": "",
          "type": "uint256"
        }
      ],
      "stateMutability": "view",
      "type": "function"
    },
    {
      "inputs": [],
      "name": "priceInWei",
      "outputs": [
        {
          "internalType": "uint256",
          "name": "",
          "type": "uint256"
        }
      ],
      "stateMutability": "view",
      "type": "function"
    },
    {
      "inputs": [],
      "name": "pricePaid",
      "outputs": [
        {
          "internalType": "uint256",
          "name": "",
          "type": "uint256"
        }
      ],
      "stateMutability": "view",
      "type": "function"
    },
    {
      "stateMutability": "payable",
      "type": "receive"
    }
  ],
  "bytecode": "0x608060405234801561001057600080fd5b506040516104b13803806104b18339818101604052606081101561003357600080fd5b81019080805190602001909291908051906020019092919080519060200190929190505050816000819055508060018190555082600360006101000a81548173ffffffffffffffffffffffffffffffffffffffff021916908373ffffffffffffffffffffffffffffffffffffffff1602179055505050506103f8806100b96000396000f3fe6080604052600436106100385760003560e01c80632986c0e5146103015780633c8da5881461032c57806389794d0014610357576102ff565b366102ff576000600254146100b5576040517f08c379a00000000000000000000000000000000000000000000000000000000081526004018080602001828103825260148152602001807f4974656d206973207061696420616c726561647900000000000000000000000081525060200191505060405180910390fd5b346000541461012c576040517f08c379a00000000000000000000000000000000000000000000000000000000081526004018080602001828103825260198152602001807f4f6e6c792066756c6c207061796d656e7420616c6c6f7765640000000000000081525060200191505060405180910390fd5b346002600082825401925050819055506000600360009054906101000a900473ffffffffffffffffffffffffffffffffffffffff1673ffffffffffffffffffffffffffffffffffffffff1634600154604051602401808281526020019150506040516020818303038152906040527f800fb83f000000000000000000000000000000000000000000000000000000007bffffffffffffffffffffffffffffffffffffffffffffffffffffffff19166020820180517bffffffffffffffffffffffffffffffffffffffffffffffffffffffff83818316178352505050506040518082805190602001908083835b6020831061023b5780518252602082019150602081019050602083039250610218565b6001836020036101000a03801982511681845116808217855250505050505090500191505060006040518083038185875af1925050503d806000811461029d576040519150601f19603f3d011682016040523d82523d6000602084013e6102a2565b606091505b50509050806102fc576040517f08c379a000000000000000000000000000000000000000000000000000000000815260040180806020018281038252602e815260200180610395602e913960400191505060405180910390fd5b50005b005b34801561030d57600080fd5b50610316610382565b6040518082815260200191505060405180910390f35b34801561033857600080fd5b50610341610388565b6040518082815260200191505060405180910390f35b34801561036357600080fd5b5061036c61038e565b6040518082815260200191505060405180910390f35b60015481565b60005481565b6002548156fe546865207472616e73616374696f6e20776173206e6f74207375636365737366756c2c2063616e63656c6c696e67a264697066735822122030375f069993e8358a14c4733b5aedf092c3a8ff665f4a2985b7057e3a3b743b64736f6c63430006040033",
  "source": "//SPDX-License-Identifier: MIT\r\n\r\npragma solidity >=0.6.0;\r\n\r\nimport \"./ItemManager.sol\";\r\n\r\ncontract Item {\r\n    uint public priceInWei;\r\n    uint public index;\r\n    uint public pricePaid;\r\n    \r\n    ItemManager parentContract;\r\n    \r\n    constructor(ItemManager _parentContract, uint _priceInWei, uint _index) public {\r\n        priceInWei = _priceInWei;\r\n        index = _index;\r\n        parentContract = _parentContract;\r\n    }\r\n\r\n    receive() external payable {\r\n        require(pricePaid == 0, \"Item is paid already\");\r\n        require(priceInWei == msg.value, \"Only full payment allowed\");\r\n        pricePaid += msg.value;\r\n        //(bool success, ) = address(parentContract).call{value: msg.value}(abi.encodeWithSignature(\"triggerPayment(uint256)\", index));\r\n        (bool success, ) = address(parentContract).call{value:msg.value}(abi.encodeWithSignature(\"triggerPayment(uint256)\", index));\r\n        require(success, \"The transaction was not successful, cancelling\");\r\n    }\r\n\r\n    fallback() external payable {}\r\n}",
  "sourcePath": "C:\\Users\\Administrator\\Desktop\\solidity\\eventtrigger\\contracts\\Item.sol",
  "compiler": {
    "name": "solc",
    "version": "0.6.4+commit.1dca32f3.Emscripten.clang"
  },
  "schemaVersion": "3.0.20",
  "updatedAt": "2022-02-24T08:48:47.706Z",
  "devdoc": {
    "methods": {}
  },
  "userdoc": {
    "methods": {}
  }
}