{
  "contractName": "Ownable",
  "abi": [
    {
      "inputs": [],
      "stateMutability": "nonpayable",
      "type": "constructor"
    },
    {
      "inputs": [],
      "name": "isOwner",
      "outputs": [
        {
          "internalType": "bool",
          "name": "",
          "type": "bool"
        }
      ],
      "stateMutability": "view",
      "type": "function"
    }
  ],
  "bytecode": "0x6080604052348015600f57600080fd5b50336000806101000a81548173ffffffffffffffffffffffffffffffffffffffff021916908373ffffffffffffffffffffffffffffffffffffffff16021790555060da8061005e6000396000f3fe6080604052348015600f57600080fd5b506004361060285760003560e01c80638f32d59b14602d575b600080fd5b6033604d565b604051808215151515815260200191505060405180910390f35b60008060009054906101000a900473ffffffffffffffffffffffffffffffffffffffff1673ffffffffffffffffffffffffffffffffffffffff163373ffffffffffffffffffffffffffffffffffffffff161490509056fea2646970667358221220881b43559bf9302fd6022a3e795d3cdfe1b38c814a47b0902e4f558b9152429564736f6c63430006040033",
  "source": "//SPDX-License-Identifier: MIT\r\n\r\npragma solidity >=0.6.0;\r\n\r\ncontract Ownable {\r\n    address payable _owner;\r\n    \r\n    constructor() public {\r\n        _owner = payable(msg.sender);\r\n        \r\n    }\r\n\r\n    modifier onlyOwner() {\r\n        require(isOwner(), \"You are not the owner\");\r\n        _;\r\n    }\r\n\r\n    function isOwner() public view returns(bool) {\r\n        return (msg.sender == _owner);\r\n    }\r\n}",
  "sourcePath": "C:\\Users\\Administrator\\Desktop\\solidity\\eventtrigger\\contracts\\Ownable.sol",
  "compiler": {
    "name": "solc",
    "version": "0.6.4+commit.1dca32f3.Emscripten.clang"
  },
  "schemaVersion": "3.0.20",
  "updatedAt": "2022-02-24T08:48:47.713Z",
  "devdoc": {
    "methods": {}
  },
  "userdoc": {
    "methods": {}
  }
}